:020000040800F2
:10000000000003206D1A00085D180008651800083C
:100010006D180008751800087D1800080000000021
:10002000000000000000000000000000851800082B
:100030009318000800000000A1180008AF1800087D
:10004000BD1A0008BD1A0008BD1A0008BD1A000834
:10005000BD1A0008BD1A0008BD1A0008BD1A000824
:10006000BD1A0008BD1A0008BD1A0008BD1A000814
:10007000BD1A0008BD1A0008BD1A0008BD1A000804
:10008000BD1A0008BD1A0008BD1A0008BD1A0008F4
:10009000BD1A0008BD1A0008BD1A0008BD1A0008E4
:1000A000BD1A0008BD1A0008BD1A0008BD1A0008D4
:1000B000BD1A0008BD1A0008BD1A0008BD1A0008C4
:1000C000BD1A0008BD1A0008BD1A0008BD1A0008B4
:1000D000BD1A0008BD1A0008BD1A0008BD1A0008A4
:1000E000BD1A0008BD1A0008BD1A0008BD1A000894
:1000F000BD1A0008BD1A0008BD1A0008BD1A000884
:10010000BD1A0008BD1A0008BD1A0008BD1A000873
:10011000BD1A0008BD1A0008BD1A0008BD1A000863
:10012000BD1A0008BD1A0008BD1A0008BD1A000853
:10013000BD1A0008BD1A0008BD1A0008BD1A000843
:10014000BD1A0008BD1A0008BD1A0008BD1A000833
:10015000BD1A0008BD1A0008BD1A0008BD1A000823
:10016000BD1A0008BD1A0008BD1A0008BD1A000813
:10017000BD1A0008BD1A0008BD1A000800000000E2
:10018000BD1A0008BD1A0008BD1A0008BD1A0008F3
:10019000BD1A0008BD1A0008BD1A0008BD1A0008E3
:0C01A000BD1A0008BD1A0008BD1A0008B6
:1001B00010B5054C237833B9044B13B10448AFF3A1
:1001C00000800123237010BDE80100200000000022
:1001D000AC7B000808B5034B1BB103490348AFF3E0
:1001E000008008BD00000000EC010020AC7B00088E
:1001F00001F0FF01102A2BDB10F0070F08D010F8D8
:10020000013B013A8B422DD010F0070F42B3F6D1DB
:10021000F0B441EA012141EA014122F007047FF0F4
:1002200000070023F0E80256083C85EA010586EA4B
:10023000010685FA47F5A3FA87F586FA47F6A5FA87
:1002400087F68EB9EED1F0BC01F0FF0102F0070293
:1002500032B110F8013B013A83EA010313B1F8D13E
:100260000020704701387047002D06BF354603381F
:10027000073815F0010F07D1013015F4807F02BF58
:10028000013015F4C03F0130F0BC0138704700BFA9
:10029000034613F8012B002AFBD1181A01387047C6
:1002A00081F0004102E000BF83F0004330B54FEA27
:1002B00041044FEA430594EA050F08BF90EA020F94
:1002C0001FBF54EA000C55EA020C7FEA645C7FEA27
:1002D000655C00F0E2804FEA5454D4EB5555B8BF4A
:1002E0006D420CDD2C4480EA020281EA030382EABB
:1002F000000083EA010180EA020281EA0303362D4D
:1003000088BF30BD11F0004F4FEA01314FF4801C1F
:100310004CEA113102D0404261EB410113F0004F31
:100320004FEA03334CEA133302D0524263EB4303E8
:1003300094EA050F00F0A780A4F10104D5F1200E86
:100340000DDB02FA0EFC22FA05F2801841F10001E1
:1003500003FA0EF2801843FA05F359410EE0A5F1B5
:1003600020050EF1200E012A03FA0EFC28BF4CF0E6
:10037000020C43FA05F3C01851EBE37101F000459C
:1003800007D54FF0000EDCF1000C7EEB00006EEBA9
:100390000101B1F5801F1BD3B1F5001F0CD3490833
:1003A0005FEA30004FEA3C0C04F101044FEA44528A
:1003B00012F5800F80F09A80BCF1004F08BF5FEA11
:1003C000500C50F1000041EB045141EA050130BDF1
:1003D0005FEA4C0C404141EB0101013C28BFB1F503
:1003E000801FE9D291F0000F04BF01460020B1FA4E
:1003F00081F308BF2033A3F10B03B3F120020CDA21
:100400000C3208DD02F1140CC2F10C0201FA0CF0FE
:1004100021FA02F10CE002F11402D8BFC2F1200C63
:1004200001FA02F120FA0CFCDCBF41EA0C01904019
:10043000E41AA2BF01EB0451294330BD6FEA040462
:100440001F3C1CDA0C340EDC04F11404C4F120024D
:1004500020FA04F001FA02F340EA030021FA04F35F
:1004600045EA030130BDC4F10C04C4F1200220FAB6
:1004700002F001FA04F340EA0300294630BD21FAF4
:1004800004F0294630BD94F0000F83F4801306BFBA
:1004900081F480110134013D4EE77FEA645C18BFAE
:1004A0007FEA655C29D094EA050F08BF90EA020F45
:1004B00005D054EA000C04BF1946104630BD91EA3D
:1004C000030F1EBF0021002030BD5FEA545C05D140
:1004D0004000494128BF41F0004130BD14F580047F
:1004E0003CBF01F5801130BD01F0004545F0FE41F3
:1004F00041F470014FF0000030BD7FEA645C1ABF28
:10050000194610467FEA655C1CBF0B46024650EA5E
:10051000013406BF52EA033591EA030F41F400218A
:1005200030BD00BF90F0000F04BF0021704730B510
:100530004FF4806404F132044FF000054FF00001E5
:1005400050E700BF90F0000F04BF0021704730B5A6
:100550004FF4806404F1320410F0004548BF40427B
:100560004FF000013EE700BF42004FEAE2014FEAD0
:1005700031014FEA02701FBF12F07F4393F07F4FAB
:1005800081F06051704732F07F4208BF704793F0AE
:100590007F4F04BF41F40021704730B54FF46074C1
:1005A00001F0004521F000411CE700BF50EA0102C4
:1005B00008BF704730B54FF000050AE050EA01026D
:1005C00008BF704730B511F0004502D5404261EBDD
:1005D00041014FF4806404F132045FEA915C3FF41E
:1005E000D8AE4FF003025FEADC0C18BF03325FEABB
:1005F000DC0C18BF033202EBDC02C2F1200300FA6C
:1006000003FC20FA02F001FA03FE40EA0E0021FA90
:1006100002F11444BDE600BF70B54FF0FF0C4CF47E
:10062000E06C1CEA11541DBF1CEA135594EA0C0F30
:1006300095EA0C0F00F0DEF82C4481EA030621EA6B
:100640004C5123EA4C5350EA013518BF52EA0335A6
:1006500041F4801143F4801338D0A0FB02CE4FF058
:100660000005E1FB02E506F00042E0FB03E54FF088
:100670000006E1FB03569CF0000F18BF4EF0010E80
:10068000A4F1FF04B6F5007F64F5407404D25FEA7C
:100690004E0E6D4146EB060642EAC62141EA55512F
:1006A0004FEAC52040EA5E504FEACE2EB4F1FD0C71
:1006B00088BFBCF5E06F1ED8BEF1004F08BF5FEAEF
:1006C000500E50F1000041EB045170BD06F00046A1
:1006D00046EA010140EA020081EA0301B4EB5C044E
:1006E000C2BFD4EB0C0541EA045170BD41F4801146
:1006F0004FF0000E013C00F3AB8014F1360FDEBF6B
:10070000002001F0004170BDC4F10004203C35DA46
:100710000C341BDC04F11404C4F1200500FA05F3C9
:1007200020FA04F001FA05F240EA020001F000426A
:1007300021F0004110EBD37021FA04F642EB0601E0
:100740005EEA430E08BF20EAD37070BDC4F10C040A
:10075000C4F1200500FA04F320FA05F001FA04F2CE
:1007600040EA020001F0004110EBD37041F10001BA
:100770005EEA430E08BF20EAD37070BDC4F12005C5
:1007800000FA05F24EEA020E20FA04F301FA05F22D
:1007900043EA020321FA04F001F0004121FA04F2D5
:1007A00020EA020000EBD3705EEA430E08BF20EAA5
:1007B000D37070BD94F0000F0FD101F000464000DF
:1007C00041EB010111F4801F08BF013CF7D041EA61
:1007D000060195F0000F18BF704703F00046520065
:1007E00043EB030313F4801F08BF013DF7D043EA36
:1007F0000603704794EA0C0F0CEA135518BF95EAEC
:100800000C0F0CD050EA410618BF52EA4306D1D172
:1008100081EA030101F000414FF0000070BD50EA91
:10082000410606BF1046194652EA430619D094EA1B
:100830000C0F02D150EA013613D195EA0C0F05D105
:1008400052EA03361CBF104619460AD181EA030159
:1008500001F0004141F0FE4141F470014FF0000011
:1008600070BD41F0FE4141F4780170BD70B54FF0AC
:10087000FF0C4CF4E06C1CEA11541DBF1CEA13552C
:1008800094EA0C0F95EA0C0F00F0A7F8A4EB05040E
:1008900081EA030E52EA03354FEA013100F0888005
:1008A0004FEA03334FF0805545EA131343EA1263CE
:1008B0004FEA022245EA111545EA10654FEA002683
:1008C0000EF000419D4208BF964244F1FD0404F53C
:1008D000407402D25B084FEA3202B61A65EB030598
:1008E0005B084FEA32024FF480104FF4002CB6EB55
:1008F000020E75EB030E22BFB61A754640EA0C00D5
:100900005B084FEA3202B6EB020E75EB030E22BF14
:10091000B61A754640EA5C005B084FEA3202B6EB55
:10092000020E75EB030E22BFB61A754640EA9C0014
:100930005B084FEA3202B6EB020E75EB030E22BFE4
:10094000B61A754640EADC0055EA060E18D04FEAA2
:10095000051545EA16754FEA06164FEAC30343EA42
:1009600052734FEAC2025FEA1C1CC0D111F4801F0F
:100970000BD141EA00014FF000004FF0004CB6E708
:1009800011F4801F04BF01430020B4F1FD0C88BFA7
:10099000BCF5E06F3FF6AFAEB5EB030C04BFB6EBB2
:1009A000020C5FEA500C50F1000041EB045170BDA5
:1009B0000EF0004E4EEA113114EB5C04C2BFD4EBD2
:1009C0000C0541EA045170BD41F480114FF0000E56
:1009D000013C90E645EA060E8DE60CEA135594EAD2
:1009E0000C0F08BF95EA0C0F3FF43BAF94EA0C0FD5
:1009F0000AD150EA01347FF434AF95EA0C0F7FF44A
:100A000025AF104619462CE795EA0C0F06D152EA9D
:100A100003353FF4FDAE1046194622E750EA410681
:100A200018BF52EA43067FF4C5AE50EA41047FF492
:100A30000DAF52EA43057FF4EBAE12E74FF0FF3CF7
:100A400006E000BF4FF0010C02E000BF4FF0010CC8
:100A50004DF804CD4FEA410C7FEA6C5C4FEA430C41
:100A600018BF7FEA6C5C1BD001B050EA410C0CBF90
:100A700052EA430C91EA030F02BF90EA020F0020F2
:100A8000704710F1000F91EA030F58BF994208BF59
:100A900090422CBFD8176FEAE37040F00100704716
:100AA0004FEA410C7FEA6C5C02D150EA013C07D16D
:100AB0004FEA430C7FEA6C5CD6D152EA033CD3D0B8
:100AC0005DF8040B704700BF8446104662468C46B2
:100AD0001946634600E000BF01B5FFF7B7FF0028E5
:100AE00048BF10F1000F01BD4DF808EDFFF7F4FF0E
:100AF0000CBF012000205DF808FB00BF4DF808ED99
:100B0000FFF7EAFF34BF012000205DF808FB00BFBB
:100B10004DF808EDFFF7E0FF94BF012000205DF8DD
:100B200008FB00BF4DF808EDFFF7CEFF94BF012092
:100B300000205DF808FB00BF4DF808EDFFF7C4FF8B
:100B400034BF012000205DF808FB00BF4FEA410CD4
:100B50007FEA6C5C02D150EA013C0AD14FEA430CB7
:100B60007FEA6C5C02D152EA033C02D14FF00000F4
:100B700070474FF0010070474FEA410212F5001232
:100B800015D211D56FF47873B3EB625212D94FEAD4
:100B9000C12343F0004343EA505311F0004F23FABE
:100BA00002F018BF404270474FF00000704750EA13
:100BB000013005D111F0004008BF6FF000407047D0
:100BC0004FF00000704700BF4FEA4102B2F1E0432E
:100BD00024BFB3F5001CDCF1FE5C0DD901F0004C24
:100BE0004FEAC0024CEA5070B2F1004F40EB830074
:100BF00008BF20F00100704711F0804F21D113F1A0
:100C00003872BCBF01F00040704741F480114FEAD8
:100C10005252C2F11802C2F1200C10FA0CF320FA61
:100C200002F018BF40F001004FEAC1234FEAD3237E
:100C300003FA0CFC40EA0C0023FA02F34FEA4303E8
:100C4000CCE77FEA625307D150EA01331EBF4FF071
:100C5000FE4040F44000704701F0004040F0FE408C
:100C600040F40000704700BF53B94AB9002908BFDB
:100C700000281CBF4FF0FF314FF0FF3000F06AB981
:100C8000ADF1080C6DE904CE00F006F8DDF804E0E3
:100C9000DDE9022304B070472DE9F047089D0C46BA
:100CA000002B4ED194468C458646B2FA82F262D928
:100CB0004AB1C2F12003914020FA03F30CFA02FC7E
:100CC000194300FA02FE4FEA1C471FFA8CF6B1FBEB
:100CD000F7F44FEA1E4307FB141143EA014304FBF8
:100CE00006F199420AD91CEB030304F1FF3080F0AE
:100CF0001281994240F20F81023C6344591A1FFA53
:100D00008EF3B1FBF7F007FB101143EA014300FB40
:100D100006F69E420AD91CEB030300F1FF3180F076
:100D2000FC809E4240F2F980634402389B1B40EAFB
:100D3000044000211DB1D3400022C5E90032BDE8C6
:100D4000F0878B4205D90DB1C5E9000100210846A5
:100D5000F5E7B3FA83F1002946D1A34202D39042CA
:100D6000C0F0F080861A64EB03030120002DE6D06A
:100D7000C5E90063E3E7002A40F09080A1EB0C0492
:100D80004FEA1C481FFA8CF70121B4FBF8F64FEA32
:100D90001E4308FB164443EA044307FB06F098424F
:100DA00008D91CEB030306F1FF3402D2984200F28B
:100DB000CD8026461C1A1FFA8EF3B4FBF8F008FB10
:100DC000104443EA044300FB07F79F4208D91CEB99
:100DD000030300F1FF3402D29F4200F2B0802046AC
:100DE000DB1B40EA0640A5E7C1F120068B4022FA52
:100DF00006F71F4320FA06FC04FA01F343EA0C034A
:100E0000F44000FA01F8380C4FEA1349B4FBF0FE45
:100E10001FFA87FC00FB1E4449EA04440EFB0CF950
:100E2000A14502FA01F20AD93C190EF1FF3A80F00D
:100E30008480A14540F28180AEF1020E3C44A4EBD7
:100E400009041FFA83F9B4FBF0F300FB134449EAE9
:100E5000044403FB0CFCA44507D93C1903F1FF3003
:100E600067D2A44565D9023B3C4443EA0E40A0FB4F
:100E70000293A4EB0C049C42CE469C4651D34ED028
:100E800055B1B8EB0E0364EB0C0404FA06F6CB4044
:100E90001E43CC40C5E90064002150E7C2F12003A5
:100EA00020FA03F10CFA02FC24FA03F394400C43F9
:100EB0004FEA1C4800FA02FE1FFA8CF7B3FBF8F069
:100EC00008FB1031230C43EA014300FB07F1994270
:100ED00008D91CEB030300F1FF362CD299422AD922
:100EE000023863445B1AA4B2B3FBF8F108FB113378
:100EF00044EA034401FB07F3A34208D91CEB0404B2
:100F000001F1FF3613D2A34211D902396444E41A25
:100F100041EA004139E70446F0E6084606E7C845DD
:100F2000AED2B9EB020E63EB070C0138A8E73146ED
:100F3000EDE7034699E73046D4E7D6467FE76344BA
:100F400002384DE70646234608460FE7023E634453
:100F500030E700BF704700BF80B582B000AF0346E6
:100F6000FB80FB88184600F01DFE00BF0837BD4619
:100F700080BD000080B500AF01220421074801F0C8
:100F8000D7FC0120FFF7E8FF00220421034801F00D
:100F9000CFFC0120FFF7E0FF00BF80BD000402404E
:100FA00080B582B000AF0346FB71FB7903F001030B
:100FB000DBB21A460821154801F0BAFCFB795B0840
:100FC000DBB203F00103DBB21A4610210F4801F037
:100FD000AFFCFB799B08DBB203F00103DBB21A46DE
:100FE00020210A4801F0A4FCFB79DB08DBB203F006
:100FF0000103DBB21A464021044801F099FCFFF7D7
:10100000B9FF00BF0837BD4680BD00BF00040240E5
:1010100080B582B000AF03460A46FB711346BB7130
:10102000BB791A4602210A4801F082FCFB791B09B0
:10103000DBB21846FFF7B4FFFB7903F00F03DBB216
:101040001846FFF7ADFF00BF0837BD4680BD00BFA3
:101050000004024080B586B000AF3B1D00221A603C
:101060005A609A60DA601A617E237B600123BB605C
:101070000023FB6000233B613B1D1946144801F02F
:10108000ABFA1420FFF768FF0320FFF789FF052064
:10109000FFF762FF0320FFF783FF0120FFF75CFFEC
:1010A0000320FFF77DFF0220FFF77AFF00212820B1
:1010B000FFF7AEFF00210C20FFF7AAFF002106205A
:1010C000FFF7A6FF00F045F800BF1837BD4680BD0A
:1010D0000004024080B582B000AF0346FB71FB798B
:1010E00001211846FFF794FF00BF0837BD4680BDB9
:1010F00080B582B000AF786006E07B685A1C7A60E9
:101100001B781846FFF7E6FF7B681B78002BF4D1AD
:1011100000BF00BF0837BD4680BD80B584B000AFBA
:1011200003460A46FB711346BB71FB79002B03D1C2
:10113000BB79803BDBB202E0BB79403BDBB2FB73A7
:10114000FB7B00211846FFF763FF00BF1037BD4649
:1011500080BD80B500AF00210120FFF759FF0220BC
:10116000FFF7FAFE00BF80BD80B590B000AF034628
:10117000FB800B467B7113463B71FA8807F10C0329
:101180000949184603F0FCF93A797B79114618466B
:10119000FFF7C3FF07F10C031846FFF7A9FF00BFD5
:1011A0004037BD4680BD00BFC87B000880B582B017
:1011B00000AF00F085FC00F083F800F06FF900F05C
:1011C000F1F800F041F9FFF745FF00F0D9F9786038
:1011D000786800F0F1F9F0EE407A314BC3ED007A17
:1011E0002F4BD3ED007AB0EE670A00F025FAF0EE4F
:1011F000407A2C4BC3ED007AFFF7ABFF294BD3EDC0
:10120000007A9FED297AF4EEC77AF1EE10FA14D540
:10121000244BD3ED007AFCEEE77A17EE903A9BB2BE
:10122000002200211846FFF79FFF00210120FFF751
:1012300074FF1E48FFF75CFF15E000F08DF9194BB5
:10124000D3ED007AFCEEE77A17EE903A9BB20022DB
:1012500000211846FFF788FF00210120FFF75DFFFE
:101260001348FFF745FF0F4BD3ED007AFCEEE77A0A
:1012700017EE903A9BB21A460E490F4803F080F9D8
:101280000D48FFF705F803469AB24FF0FF330A49BD
:101290000A4802F09FF84FF47A7000F083FC94E75C
:1012A00098020020940200200000FA44D47B000839
:1012B000E07B0008F07B00089C0200204C0200202C
:1012C00080B594B000AF07F120033022002118460A
:1012D00003F0B9F907F10C0300221A605A609A6012
:1012E000DA601A610023BB602C4B1B6C2B4A43F065
:1012F00080531364294B1B6C03F08053BB60BB68A5
:1013000000237B60264B1B68254A43F4404313604F
:10131000234B1B6803F440437B607B6801233B62E3
:101320004FF480337B620223BB634FF48003FB6383
:1013300008233B644FF4B4737B640223BB6404232F
:10134000FB6407F12003184601F05CFB0346002B09
:1013500001D000F0C9F901F005FB0346002B01D0D4
:1013600000F0C2F90F23FB6002233B6100237B6185
:101370004FF4A053BB614FF48053FB6107F10C03A2
:101380000521184601F0B6FD0346002B01D000F000
:10139000ABF900BF5037BD4680BD00BF00380240EA
:1013A0000070004080B584B000AF3B4600221A6058
:1013B0005A609A60DA60214B214A1A601F4B4FF441
:1013C00080325A601D4B00229A601C4B00221A6129
:1013D0001A4B00221A76194B002283F82020174B53
:1013E0000022DA62154B174A9A62144B0022DA6027
:1013F000124B0122DA61114B002283F830200F4B8F
:1014000001225A610D4800F0F1FB0346002B01D088
:1014100000F06AF900233B6001237B600023BB607E
:101420003B461946054800F0C3FD0346002B01D09A
:1014300000F05AF900BF1037BD4680BD04020020FD
:10144000002001400100000F80B500AF114B124A8F
:101450001A60104B4FF416525A600E4B00229A60DD
:101460000C4B0022DA600B4B00221A61094B0C2254
:101470005A61084B00229A61064B0022DA61054846
:1014800001F058FF0346002B01D000F02DF900BFFA
:1014900080BD00BF4C0200200010014080B588B024
:1014A00000AF07F10C0300221A605A609A60DA60FC
:1014B0001A610023BB60264B1B6B254A43F0800357
:1014C0001363234B1B6B03F08003BB60BB680023DB
:1014D0007B601F4B1B6B1E4A43F0010313631C4BC5
:1014E0001B6B03F001037B607B6800233B60184BA0
:1014F0001B6B174A43F002031363154B1B6B03F07E
:1015000002033B603B6800227F21124801F010FA81
:101510000123FB6001233B6100237B610123BB614D
:1015200007F10C0319460B4801F056F87E23FB60C7
:1015300001233B6100237B610223BB6107F10C03A4
:101540001946044801F048F800BF2037BD4680BD69
:10155000003802400004024080B500AF01220121A2
:10156000064801F0E5F94FF4FA7000F01BFB002289
:101570000121024801F0DCF900BF80BD00040240F7
:1015800080B582B000AF0A4800F074FB4FF0FF3125
:10159000074800F074FC064800F0FCFC7860044842
:1015A00000F03AFC7B6818460837BD4680BD00BF96
:1015B000040200200000000080B584B000AF786015
:1015C0007868FEF7AFFF19A3D3E90023FFF74EF9C0
:1015D00002460B46104619464FF00002124BFFF729
:1015E0001BF802460B4610461946FFF7EDFA034674
:1015F000FB60B1EE047AD7ED037A77EE676A97ED78
:10160000037AC6EE877AB1EE047A67EE877AC7ED81
:10161000027ABB6807EE903AB0EE670A1037BD4613
:1016200080BD00BFAFF30080000014400000000048
:1016300000FEAF4000000000B0B586B000AF87EDFF
:10164000010A97ED017AF2EE046AC7EE267AC7ED39
:10165000057A234B3B61234BFB607869FEF784FFDF
:1016600002460B4643EC102B05F0B6F855EC104B38
:10167000F868FEF779FF02460B4620462946FEF73A
:1016800013FE02460B4614461D463869FEF76CFFF2
:1016900002460B4620462946FFF7E8F802460B466D
:1016A00043EC172BB0EE471AF0EE671A9FED0A0BCA
:1016B00005F0D0F853EC102B10461946FFF784FACA
:1016C0000346BB60BB6807EE903AB0EE670A183776
:1016D000BD46B0BDAFF30080000000000000244014
:1016E000D7A3F0BEA4709D3F80B400AF72B600BF18
:1016F00000BFFDE780B483B000AF00237B60104BD8
:101700005B6C0F4A43F4804353640D4B5B6C03F4F2
:1017100080437B607B6800233B60094B1B6C084A5D
:1017200043F080531364064B1B6C03F080533B6003
:101730003B6800BF0C37BD465DF8047B704700BFB7
:101740000038024080B58AB000AF786007F114031A
:1017500000221A605A609A60DA601A617B681B681E
:10176000174A934227D100233B61164B5B6C154A05
:1017700043F480735364134B5B6C03F480733B61DD
:101780003B690023FB600F4B1B6B0E4A43F00103C8
:1017900013630C4B1B6B03F00103FB60FB6801231D
:1017A0007B610323BB610023FB6107F1140319462E
:1017B000054800F011FF00BF2837BD4680BD00BFBF
:1017C00000200140003802400000024080B58AB08D
:1017D00000AF786007F1140300221A605A609A6023
:1017E000DA601A617B681B68194A93422CD1002386
:1017F0003B61184B5B6C174A43F010035364154B65
:101800005B6C03F010033B613B690023FB60114BF1
:101810001B6B104A43F0010313630E4B1B6B03F069
:101820000103FB60FB684FF4C0637B610223BB6173
:101830000023FB6103233B6207237B6207F1140350
:101840001946054800F0C8FE00BF2837BD4680BDD8
:1018500000100140003802400000024080B400AF98
:1018600000BFFDE780B400AF00BFFDE780B400AF6C
:1018700000BFFDE780B400AF00BFFDE780B400AF5C
:1018800000BFFDE780B400AF00BFBD465DF8047B3C
:10189000704780B400AF00BFBD465DF8047B704761
:1018A00080B400AF00BFBD465DF8047B704780B5D3
:1018B00000AF00F057F900BF80BD80B400AF012336
:1018C0001846BD465DF8047B704780B582B000AF16
:1018D0007860396002F00AFF034616221A604FF062
:1018E000FF3318460837BD4680BD80B582B000AFD3
:1018F00078604FF0FF317868FFF7E7FF00BFFDE742
:1019000080B586B000AFF860B9607A6000237B6173
:101910000AE0AFF300800146BB685A1CBA60CAB245
:101920001A707B6901337B617A697B689A42F0DBCC
:101930007B6818461837BD4680BD80B586B000AFBD
:10194000F860B9607A6000237B6109E0BB685A1CCB
:10195000BA601B781846AFF300807B6901337B6166
:101960007A697B689A42F1DB7B6818461837BD4676
:1019700080BD80B483B000AF78604FF0FF3318466D
:101980000C37BD465DF8047B704780B483B000AF70
:10199000786039603B684FF400525A600023184663
:1019A0000C37BD465DF8047B704780B483B000AF50
:1019B0007860012318460C37BD465DF8047B7047FC
:1019C00080B485B000AFF860B9607A600023184633
:1019D0001437BD465DF8047B7047000080B586B0C3
:1019E00000AF7860144A154BD31A7B617B693B6169
:1019F000134B1B68002B02D1114B124A1A60104B7B
:101A00001A687B6813443A699A4207D202F06EFE64
:101A100003460C221A604FF0FF3309E0084B1B68A5
:101A2000FB60074B1A687B681344054A1360FB6828
:101A300018461837BD4680BD000003200004000092
:101A4000000300205804002080B400AF064BD3F8F8
:101A50008830054A43F47003C2F8883000BFBD46A1
:101A60005DF8047B704700BF00ED00E0DFF834D084
:101A7000FFF7EAFF0C480D490D4A002302E0D45855
:101A8000C4500433C4188C42F9D30A4A0A4C0023C8
:101A900001E013600432A242FBD302F02DFEFFF7F7
:101AA00085FB70470000032000000020E8010020B3
:101AB000C87F0008E801002054040020FEE7000071
:101AC00080B500AF0E4B1B680D4A43F400731360E2
:101AD0000B4B1B680A4A43F480631360084B1B6876
:101AE000074A43F480731360032000F041FD0F2088
:101AF00000F008F8FFF7FEFD0023184680BD00BF88
:101B0000003C024080B582B000AF7860124B1A688A
:101B1000124B1B7819464FF47A73B3FBF1F3B2FB07
:101B2000F3F3184600F04BFD0346002B01D00123D0
:101B30000EE07B680F2B0AD8002279684FF0FF3047
:101B400000F021FD064A7B681360002300E00123BA
:101B500018460837BD4680BD000000200800002060
:101B60000400002080B400AF064B1B781A46064BD9
:101B70001B681344044A136000BFBD465DF8047B34
:101B8000704700BF080000200403002080B400AFAD
:101B9000034B1B681846BD465DF8047B704700BFC9
:101BA0000403002080B584B000AF7860FFF7EEFF3B
:101BB000B8607B68FB60FB68B3F1FF3F05D00A4B60
:101BC0001B781A46FB681344FB6000BFFFF7DEFF7B
:101BD0000246BB68D31AFA689A42F7D800BF00BF22
:101BE0001037BD4680BD00BF0800002080B584B01E
:101BF00000AF78600023FB737B68002B01D10123C9
:101C000033E07B681B6C002B09D17868FFF79AFDE5
:101C10007B6800225A647B68002283F83C207B6842
:101C20001B6C03F01003002B18D17B681B6C23F492
:101C3000885323F0020343F002027B681A64786839
:101C400000F0E8FA7B6800225A647B681B6C23F082
:101C5000030343F001027B681A6401E00123FB7374
:101C60007B68002283F83C20FB7B18461037BD467A
:101C700080BD000080B485B000AF78600023BB60F9
:101C80007B6893F83C30012B01D10223B2E07B68E2
:101C9000012283F83C207B681B689B6803F00103EA
:101CA000012B18D07B681B689A687B681B6842F020
:101CB00001029A60524B1B68524AA2FB03239A0C02
:101CC00013465B001344BB6002E0BB68013BBB6092
:101CD000BB68002BF9D17B681B689B6803F001038C
:101CE000012B7AD17B681B6C23F4E06323F00103A2
:101CF00043F480727B681A647B681B685B6803F43A
:101D00008063002B07D07B681B6C23F4405343F4A3
:101D100080527B681A647B681B6C03F48053B3F5B4
:101D2000805F06D17B685B6C23F006027B685A6497
:101D300002E07B6800225A647B68002283F83C2022
:101D4000314BFB607B681B686FF022021A60FB68F6
:101D50005B6803F01F03002B2AD17B681B682B4AAA
:101D6000934215D07B681B68294A934205D1264BC4
:101D70005B6803F01F03002B0AD07B681B68254AB1
:101D8000934236D1204B5B6803F01003002B30D117
:101D90007B681B689B6803F04053002B29D17B684C
:101DA0001B689A687B681B6842F080429A6020E05A
:101DB0007B681B68154A93421BD17B681B689B6834
:101DC00003F04053002B14D17B681B689A687B6832
:101DD0001B6842F080429A600BE07B681B6C43F00A
:101DE00010027B681A647B685B6C43F001027B68BD
:101DF0005A64002318461437BD465DF8047B7047CB
:101E00000000002083DE1B4300230140002001402E
:101E1000002101400022014080B483B000AF78600F
:101E20007B6893F83C30012B01D1022321E07B68D1
:101E3000012283F83C207B681B689A687B681B68DA
:101E400022F001029A607B681B689B6803F0010323
:101E5000002B09D17B681B6C23F4885323F001030A
:101E600043F001027B681A647B68002283F83C20FF
:101E7000002318460C37BD465DF8047B704780B5DB
:101E800084B000AF786039600023FB607B681B681A
:101E90009B6803F48063B3F5806F13D17B681B6884
:101EA0009B6803F48073B3F5807F0BD17B681B6C58
:101EB00043F020027B681A647B68002283F83C2090
:101EC000012363E0FFF762FEF86021E03B68B3F1B5
:101ED000FF3F1DD03B68002B07D0FFF757FE02469F
:101EE000FB68D31A3A689A4212D27B681B681B6857
:101EF00003F00203022B0BD07B681B6C43F004023F
:101F00007B681A647B68002283F83C2003233DE051
:101F10007B681B681B6803F00203022BD6D17B6829
:101F20001B686FF012021A607B681B6C43F400722E
:101F30007B681A647B681B689B6803F04053002B26
:101F400023D17B681B7E002B1FD17B681B68DB6A5B
:101F500003F47003002B06D07B681B689B6803F4B6
:101F60008063002B11D17B681B6C23F480727B682B
:101F70001A647B681B6C03F48053002B05D17B68CB
:101F80001B6C43F001027B681A640023184610376B
:101F9000BD4680BD80B483B000AF78607B681B68AD
:101FA000DB6C18460C37BD465DF8047B70470000BB
:101FB00080B485B000AF786039600023BB607B6877
:101FC00093F83C30012B01D1022313E17B680122FD
:101FD00083F83C203B681B68092B25D97B681B686C
:101FE000D9683B681B689BB21A4613465B001344D2
:101FF0001E3B072202FA03F3DA437B681B680A40A0
:10200000DA607B681B68D9683B689A683B681B6824
:102010009BB2184603465B0003441E3B9A407B6814
:102020001B680A43DA6022E07B681B6819693B6819
:102030001B689BB21A4613465B001344072202FA40
:1020400003F3DA437B681B680A401A617B681B68EC
:1020500019693B689A683B681B689BB2184603463F
:102060005B0003449A407B681B680A431A613B6823
:102070005B68062B24D87B681B68596B3B685A68E1
:1020800013469B001344053B1F2202FA03F3DA4375
:102090007B681B680A405A637B681B68596B3B6806
:1020A0001B689BB218463B685A6813469B00134452
:1020B000053B00FA03F27B681B680A435A634CE055
:1020C0003B685B680C2B24D87B681B68196B3B68EA
:1020D0005A6813469B001344233B1F2202FA03F362
:1020E000DA437B681B680A401A637B681B68196BBC
:1020F0003B681B689BB218463B685A6813469B00B6
:102100001344233B00FA03F27B681B680A431A63FB
:1021100023E07B681B68D96A3B685A6813469B00BA
:102120001344413B1F2202FA03F3DA437B681B6826
:102130000A40DA627B681B68D96A3B681B689BB2FD
:1021400018463B685A6813469B001344413B00FA0B
:1021500003F27B681B680A43DA62294BFB607B68E9
:102160001B68284A93420FD13B681B68122B0BD186
:10217000FB685B6823F40002FB685A60FB685B68DD
:1021800043F48002FB685A607B681B681D4A9342D7
:102190002BD13B681B681C4A934203D03B681B68E9
:1021A000112B22D1FB685B6823F48002FB685A6024
:1021B000FB685B6843F40002FB685A603B681B687D
:1021C000114A934211D1114B1B68114AA2FB032300
:1021D0009A0C13469B0013445B00BB6002E0BB6893
:1021E000013BBB60BB68002BF9D17B68002283F800
:1021F0003C20002318461437BD465DF8047B704729
:1022000000230140002001401200001000000020C7
:1022100083DE1B4380B485B000AF7860794BFB60F0
:10222000FB685B6823F44032FB685A60FB685A68BD
:102230007B685B681A43FB685A607B681B685A6856
:102240007B681B6822F480725A607B681B6859683F
:102250007B681B691A027B681B680A435A607B68AB
:102260001B685A687B681B6822F040725A607B6862
:102270001B6859687B689A687B681B680A435A60C8
:102280007B681B689A687B681B6822F400629A600E
:102290007B681B6899687B68DA687B681B680A43FF
:1022A0009A607B689B6A584A934222D07B681B687D
:1022B0009A687B681B6822F070629A607B681B6872
:1022C00099687B689A6A7B681B680A439A607B6896
:1022D0001B689A687B681B6822F040529A607B6892
:1022E0001B6899687B68DA6A7B681B680A439A6096
:1022F0000FE07B681B689A687B681B6822F070623D
:102300009A607B681B689A687B681B6822F0405261
:102310009A607B681B689A687B681B6822F00202DF
:102320009A607B681B6899687B681B7E5A007B6893
:102330001B680A439A607B6893F82030002B1BD0FF
:102340007B681B685A687B681B6842F400625A60AD
:102350007B681B685A687B681B6822F460425A607D
:102360007B681B6859687B685B6A013B5A037B6822
:102370001B680A435A6007E07B681B685A687B68E1
:102380001B6822F400625A607B681B68DA6A7B680B
:102390001B6822F47002DA627B681B68D96A7B686A
:1023A000DB69013B1A057B681B680A43DA627B68BC
:1023B0001B689A687B681B6822F400729A607B68CD
:1023C0001B6899687B6893F830305A027B681B68F9
:1023D0000A439A607B681B689A687B681B6822F4D2
:1023E00080629A607B681B6899687B685B699A0267
:1023F0007B681B680A439A6000BF1437BD465DF8CE
:10240000047B7047002301400100000F80B485B0B9
:1024100000AF78607B6803F00703FB600C4BDB6860
:10242000BB60BA684FF6FF031340BB60FB681A023B
:10243000BB68134343F0BF6343F40033BB60044AFB
:10244000BB68D36000BF1437BD465DF8047B70479E
:1024500000ED00E080B400AF044BDB681B0A03F022
:1024600007031846BD465DF8047B704700ED00E0A9
:1024700080B483B000AF03463960FB7197F9073031
:10248000002B0ADB3B68DAB20C4997F907301201DE
:10249000D2B20B4483F800230AE03B68DAB2084961
:1024A000FB7903F00F03043B1201D2B20B441A76FE
:1024B00000BF0C37BD465DF8047B704700E100E0CB
:1024C00000ED00E080B489B000AFF860B9607A60D8
:1024D000FB6803F00703FB61FB69C3F10703042BEF
:1024E00028BF0423BB61FB690433062B02D9FB69B7
:1024F000033B00E000237B614FF0FF32BB6902FA2F
:1025000003F3DA43BB681A407B699A404FF0FF310E
:102510007B6901FA03F3D9437B680B4013431846E8
:102520002437BD465DF8047B7047000080B582B05B
:1025300000AF78607B68013BB3F1807F01D301235A
:102540000FE00A4A7B68013B53600F214FF0FF30D8
:10255000FFF78EFF054B00229A60044B07221A609A
:10256000002318460837BD4680BD00BF10E000E0DC
:1025700080B582B000AF78607868FFF747FF00BF92
:102580000837BD4680BD80B586B000AF0346B96050
:102590007A60FB7300237B61FFF75CFF78617A68E8
:1025A000B9687869FFF78EFF024697F90F30114638
:1025B0001846FFF75DFF00BF1837BD4680BD80B5E8
:1025C00082B000AF78607868FFF7B0FF0346184626
:1025D0000837BD4680BD000080B489B000AF786088
:1025E000396000237B6100233B610023BB61002332
:1025F000FB6177E10122FB6902FA03F37B613B682F
:102600001B687A6913403B613A697B699A4240F0E2
:1026100066813B685B6803F00303012B05D03B68D0
:102620005B6803F00303022B30D17B689B68BB61BE
:10263000FB695B00032202FA03F3DB43BA69134030
:10264000BB613B68DA68FB695B0002FA03F3BA69B5
:102650001343BB617B68BA699A607B685B68BB6146
:102660000122FB6902FA03F3DB43BA691340BB6141
:102670003B685B681B0903F00102FB6902FA03F384
:10268000BA691343BB617B68BA695A603B685B688F
:1026900003F00303032B17D07B68DB68BB61FB6986
:1026A0005B00032202FA03F3DB43BA691340BB6108
:1026B0003B689A68FB695B0002FA03F3BA6913434B
:1026C000BB617B68BA69DA603B685B6803F003034F
:1026D000022B23D1FB69DA087B68083253F82230D9
:1026E000BB61FB6903F007039B000F2202FA03F3AF
:1026F000DB43BA691340BB613B681A69FB6903F0AD
:1027000007039B0002FA03F3BA691343BB61FB6939
:10271000DA087B680832B96943F822107B681B68C5
:10272000BB61FB695B00032202FA03F3DB43BA6976
:102730001340BB613B685B6803F00302FB695B000D
:1027400002FA03F3BA691343BB617B68BA691A6082
:102750003B685B6803F44033002B00F0C08000232B
:10276000FB60664B5B6C654A43F480435364634B88
:102770005B6C03F48043FB60FB68614AFB699B0868
:10278000023352F82330BB61FB6903F003039B0063
:102790000F2202FA03F3DB43BA691340BB617B6883
:1027A000584A934237D07B68574A934231D07B686E
:1027B000564A93422BD07B68554A934225D07B687A
:1027C000544A93421FD07B68534A934219D07B6886
:1027D000524A934213D07B68514A93420DD07B6892
:1027E000504A934207D07B684F4A934201D1092354
:1027F00012E00A2310E008230EE007230CE0062372
:102800000AE0052308E0042306E0032304E0022392
:1028100002E0012300E00023FA6902F003029200C3
:102820009340BA691343BB613549FB699B08023386
:10283000BA6941F823203D4B9B68BB613B69DB4390
:10284000BA691340BB613B685B6803F48013002BDB
:1028500003D0BA693B691343BB61344ABB699360D7
:10286000324BDB68BB613B69DB43BA691340BB6138
:102870003B685B6803F40013002B03D0BA693B6923
:102880001343BB61294ABB69D360284B5B68BB61BA
:102890003B69DB43BA691340BB613B685B6803F487
:1028A0000033002B03D0BA693B691343BB611F4A55
:1028B000BB6953601D4B1B68BB613B69DB43BA6955
:1028C0001340BB613B685B6803F48033002B03D08B
:1028D000BA693B691343BB61144ABB691360FB6966
:1028E0000133FB61FB690F2B7FF684AE00BF00BF95
:1028F0002437BD465DF8047B704700BF00380240B6
:10290000003801400000024000040240000802407C
:10291000000C024000100240001402400018024067
:10292000001C02400020024000240240003C014004
:1029300080B483B000AF78600B467B8013467B7019
:102940007B78002B03D07A887B689A6103E07B88D0
:102950001A047B689A6100BF0C37BD465DF8047BA2
:102960007047000080B582B000AF00237B60002379
:102970003B60204B1B6C1F4A43F0805313641D4B7C
:102980001B6C03F080533B603B681B4B01221A60B9
:10299000FFF7FCF8786009E0FFF7F8F802467B687B
:1029A000D31AB3F57A7F01D903231FE0134B5B6879
:1029B00003F48033B3F5803FEED1114B01221A604E
:1029C000FFF7E4F8786009E0FFF7E0F802467B687B
:1029D000D31AB3F57A7F01D9032307E0074B5B686D
:1029E00003F40033B3F5003FEED100231846083757
:1029F000BD4680BD0038024040000E4200700040DD
:102A000044000E4280B586B000AF78607B68002B32
:102A100001D1012367E27B681B6803F00103002BEF
:102A200075D0884B9B6803F00C03042B0CD0854BAE
:102A30009B6803F00C03082B12D1824B5B6803F4F4
:102A40008003B3F5800F0BD17E4B1B6803F400337A
:102A5000002B5BD07B685B68002B57D1012342E2DF
:102A60007B685B68B3F5803F06D1764B1B68754A7F
:102A700043F4803313601DE07B685B68B3F5A02FDF
:102A80000CD1704B1B686F4A43F4802313606D4B6D
:102A90001B686C4A43F4803313600BE0694B1B687E
:102AA000684A23F480331360664B1B68654A23F43D
:102AB000802313607B685B68002B13D0FFF766F8F8
:102AC000386108E0FFF762F802463B69D31A642BCD
:102AD00001D9032307E25B4B1B6803F40033002B8F
:102AE000F0D014E0FFF752F8386108E0FFF74EF835
:102AF00002463B69D31A642B01D90323F3E1514BFE
:102B00001B6803F40033002BF0D100E000BF7B68AA
:102B10001B6803F00203002B63D04A4B9B6803F051
:102B20000C03002B0BD0474B9B6803F00C03082BC6
:102B30001CD1444B5B6803F48003002B16D1414B3E
:102B40001B6803F00203002B05D07B68DB68012BB8
:102B500001D00123C7E13B4B1B6823F0F8027B68DF
:102B60001B69DB00374913430B603AE07B68DB6885
:102B7000002B20D0344B01221A60FFF707F8386190
:102B800008E0FFF703F802463B69D31A022B01D98C
:102B90000323A8E12B4B1B6803F00203002BF0D0AA
:102BA000284B1B6823F0F8027B681B69DB00254972
:102BB00013430B6015E0244B00221A60FEF7E6FF7A
:102BC000386108E0FEF7E2FF02463B69D31A022BA8
:102BD00001D9032387E11B4B1B6803F00203002B81
:102BE000F0D17B681B6803F00803002B36D07B68AC
:102BF0005B69002B16D0154B01221A60FEF7C6FF49
:102C0000386108E0FEF7C2FF02463B69D31A022B87
:102C100001D9032367E10B4B5B6F03F00203002B29
:102C2000F0D01BE0094B00221A60FEF7AFFF3861BD
:102C30000EE0FEF7ABFF02463B69D31A022B07D921
:102C4000032350E10038024000004742800E474213
:102C5000884B5B6F03F00203002BEAD17B681B6893
:102C600003F00403002B00F097800023FB75814BD9
:102C70001B6C03F08053002B0FD10023BB607D4BF6
:102C80001B6C7C4A43F0805313647A4B1B6C03F03B
:102C90008053BB60BB680123FB75774B1B6803F453
:102CA0008073002B18D1744B1B68734A43F48073F4
:102CB0001360FEF76BFF386108E0FEF767FF02461E
:102CC0003B69D31A022B01D903230CE16A4B1B6821
:102CD00003F48073002BF0D07B689B68012B06D136
:102CE000644B1B6F634A43F0010313671CE07B686E
:102CF0009B68052B0CD15F4B1B6F5E4A43F00403AE
:102D000013675C4B1B6F5B4A43F0010313670BE0D7
:102D1000584B1B6F574A23F001031367554B1B6F2A
:102D2000544A23F0040313677B689B68002B15D07B
:102D3000FEF72CFF38610AE0FEF728FF02463B69E8
:102D4000D31A41F28832934201D90323CBE0494B95
:102D50001B6F03F00203002BEED014E0FEF716FF0A
:102D600038610AE0FEF712FF02463B69D31A41F2CE
:102D70008832934201D90323B5E03E4B1B6F03F029
:102D80000203002BEED1FB7D012B05D1394B1B6CCF
:102D9000384A23F0805313647B689B69002B00F052
:102DA000A180344B9B6803F00C03082B5CD07B683C
:102DB0009B69022B41D1314B00221A60FEF7E6FEDF
:102DC000386108E0FEF7E2FE02463B69D31A022BA7
:102DD00001D9032387E0274B1B6803F00073002B06
:102DE000F0D17B68DA697B681B6A1A437B685B6A8F
:102DF0009B011A437B689B6A5B08013B1B041A43D7
:102E00007B68DB6A1B061B4913434B601B4B01228B
:102E10001A60FEF7BBFE386108E0FEF7B7FE024617
:102E20003B69D31A022B01D903235CE0114B1B68C9
:102E300003F00073002BF0D054E0104B00221A6016
:102E4000FEF7A4FE386108E0FEF7A0FE02463B69EB
:102E5000D31A022B01D9032345E0064B1B6803F06C
:102E60000073002BF0D13DE07B689B69012B07D1FB
:102E7000012338E000380240007000406000474203
:102E80001B4B5B68FB607B689B69012B28D0FB6850
:102E900003F480027B68DB699A4221D1FB6803F06E
:102EA0003F027B681B6A9A421AD1FA6847F6C073E0
:102EB00013407A68526A9201934211D1FB6803F47D
:102EC00040327B689B6A5B08013B1B049A4207D136
:102ED000FB6803F070627B68DB6A1B069A4201D0D4
:102EE000012300E0002318461837BD4680BD00BF0F
:102EF0000038024080B584B000AF786039607B68EC
:102F0000002B01D10123CCE0684B1B6803F00F03B9
:102F10003A689A420CD9654B3A68D2B21A70634B40
:102F20001B6803F00F033A689A4201D00123B8E00E
:102F30007B681B6803F00203002B20D07B681B68B2
:102F400003F00403002B05D0594B9B68584A43F407
:102F5000E05393607B681B6803F00803002B05D0E7
:102F6000534B9B68524A43F460439360504B9B68B9
:102F700023F0F0027B689B684D4913438B607B68AC
:102F80001B6803F00103002B44D07B685B68012BB6
:102F900007D1474B1B6803F40033002B19D10123E1
:102FA0007FE07B685B68022B03D07B685B68032B48
:102FB00007D13F4B1B6803F00073002B09D101239D
:102FC0006FE03B4B1B6803F00203002B01D1012390
:102FD00067E0374B9B6823F003027B685B683449EA
:102FE00013438B60FEF7D2FDF8600AE0FEF7CEFDDA
:102FF0000246FB68D31A41F28832934201D9032377
:103000004FE02B4B9B6803F00C027B685B689B00D6
:103010009A42EBD1254B1B6803F00F033A689A42A2
:103020000CD2224B3A68D2B21A70204B1B6803F0C4
:103030000F033A689A4201D0012332E07B681B6893
:1030400003F00403002B08D0194B9B6823F4E052D3
:103050007B68DB68164913438B607B681B6803F051
:103060000803002B09D0124B9B6823F460427B6855
:103070001B69DB000E4913438B6000F021F8024608
:103080000B4B9B681B0903F00F030A49CB5C22FA28
:1030900003F3094A1360094B1B681846FEF732FD1B
:1030A000002318461037BD4680BD00BF003C0240DB
:1030B00000380240FC7B00080000002004000020D3
:1030C0002DE9B04F94B000AF00237B640023FB6474
:1030D00000233B640023BB64794B9B6803F00C0323
:1030E000082B0DD0082B00F2E180002B02D0042B1E
:1030F00003D0DBE0734BBB64DBE0734BBB64D8E015
:103100006F4B5B6803F03F037B646D4B5B6803F4BC
:103110008003002B63D06A4B5B689B090022BB6372
:10312000FA63BB6BC3F308033B6300237B63D7E9FC
:103130000C4522462B464FF000004FF0000159018C
:1031400041EAD261500102460B462146511A3961CB
:10315000294663EB01037B614FF000024FF000034F
:10316000D7E904AB59468B01514643EA9163514676
:103170008A015146B2EB0108594663EB01094FF051
:1031800000024FF000034FEAC90343EA58734FEAC5
:10319000C80290469946234618EB0303BB602B46B2
:1031A00049EB0303FB604FF000024FF00003D7E947
:1031B000024529464B02214643EAD15321464A02A1
:1031C000104619467B6C0022BB62FA62D7E90A23DB
:1031D000FDF74AFD02460B461346FB6458E0384BA8
:1031E0005B689B09002218461146C0F308033B6246
:1031F00000237B62D7E9088942464B464FF0000026
:103200004FF00001590141EAD261500102460B46DC
:103210004146B2EB010A494663EB010B4FF0000255
:103220004FF000034FEA8B1343EA9A634FEA8A1286
:10323000B2EB0A0463EB0B054FF000024FF0000302
:10324000EB0043EA5473E20014461D464346E3187C
:103250003B604B4645EB03037B604FF000024FF0B1
:103260000003D7E9004529468B02214643EA9153E2
:1032700021468A02104619467B6C0022BB61FA6126
:10328000D7E90623FDF7F0FC02460B461346FB6424
:103290000B4B5B681B0C03F0030301335B003B64C7
:1032A000FA6C3B6CB2FBF3F3BB6402E0054BBB640E
:1032B00000BFBB6C18465037BD46BDE8B08F00BF9D
:1032C000003802400024F40000127A0080B400AFFD
:1032D000034B1B681846BD465DF8047B704700BF72
:1032E0000000002080B500AFFFF7F0FF0246054B5D
:1032F0009B689B0A03F007030349CB5C22FA03F3A4
:10330000184680BD003802400C7C000880B500AF34
:10331000FFF7DCFF0246054B9B685B0B03F00703DE
:103320000349CB5C22FA03F3184680BD0038024003
:103330000C7C000880B582B000AF78607B68002B01
:1033400001D1012342E07B6893F84130DBB2002BCE
:1033500006D17B68002283F840207868FEF736FAB1
:103360007B68242283F841207B681B68DA687B68CD
:103370001B6822F40052DA60786800F073F97B6809
:103380001B681A697B681B6822F490421A617B688B
:103390001B685A697B681B6822F02A025A617B68A5
:1033A0001B68DA687B681B6842F40052DA607B684D
:1033B00000225A647B68202283F841207B68202207
:1033C00083F842207B6800225A630023184608379E
:1033D000BD4680BD80B58AB002AFF860B9603B6081
:1033E0001346FB8000237B61FB6893F84130DBB21E
:1033F000202B75D1BB68002B02D0FB88002B01D19C
:1034000001236EE0FB6800225A64FB68212283F8E6
:103410004120FEF7BBFB7861FB68FA889A84FB6861
:10342000FA88DA84FB689B68B3F5805F08D1FB6893
:103430001B69002B04D10023FB61BB68BB6103E067
:10344000BB68FB610023BB612EE03B6800937B6996
:1034500000228021F86800F048F80346002B05D0D0
:10346000FB68202283F8412003233AE0FB69002B0C
:103470000BD1BB691B881A46FB681B68C2F30802A4
:103480005A60BB690233BB6107E0FB691A78FB68CD
:103490001B685A60FB690133FB61FB68DB8C9BB2E4
:1034A000013B9AB2FB68DA84FB68DB8C9BB2002B91
:1034B000CBD13B6800937B6900224021F86800F083
:1034C00014F80346002B05D0FB68202283F8412026
:1034D000032306E0FB68202283F84120002300E05C
:1034E000022318462037BD4680BD80B586B000AFA8
:1034F000F860B9603B601346FB713BE03B6AB3F197
:10350000FF3F37D0FEF742FB02463B68D31A3A6AC8
:103510009A4202D33B6A002B01D103233AE0FB68B5
:103520001B68DB6803F00403002B23D0BB68802BEF
:1035300020D0BB68402B1DD0FB681B681B6803F0C4
:103540000803082B16D100237B61FB681B681B68EE
:103550007B61FB681B685B687B617B69F86800F0D6
:103560001DF8FB6808225A64FB68002283F840209B
:1035700001230FE0FB681B681A68BB681340BA6838
:103580009A420CBF01230023DBB21A46FB799A4210
:10359000B4D0002318461837BD4680BD80B495B01E
:1035A00000AF78607B681B680C337B637B6B53E8F0
:1035B000003F3B633B6B23F49073FB647B681B68A9
:1035C0000C33FA6C3A64FB63F96B3A6C41E8002304
:1035D000BB63BB6B002BE5D17B681B6814333B627C
:1035E0003B6A53E8003FFB61FB6923F00103BB64C6
:1035F0007B681B681433BA6CFA62BB62B96AFA6AF8
:1036000041E800237B627B6A002BE5D17B681B6B62
:10361000012B19D17B681B680C33FB60FB6853E8F6
:10362000003FBB60BB6823F010037B647B681B68B2
:103630000C337A6CBA617B617969BA6941E800231D
:103640003B613B69002BE5D17B68202283F8422057
:103650007B6800221A6300BF5437BD465DF8047BC7
:10366000704700002DE9B04FC0B000AFC7F8F400BC
:10367000D7F8F4301B681B6923F44050D7F8F430B6
:10368000D968D7F8F4301A6840EA01031361D7F813
:10369000F4309A68D7F8F4301B691A43D7F8F4303D
:1036A0005B691A43D7F8F430DB691343C7F8F83085
:1036B000D7F8F4301B68DB6823F4164121F00C01C5
:1036C000D7F8F4301A68D7F8F8300B43D360D7F83E
:1036D000F4301B685B6923F44070D7F8F4309969C3
:1036E000D7F8F4301A6840EA01035361D7F8F43090
:1036F0001A688F4B9A4205D0D7F8F4301A688D4B70
:103700009A4204D1FFF702FEC7F8FC0003E0FFF77E
:10371000E9FDC7F8FC00D7F8F430DB69B3F5004FDA
:1037200040F00C81D7F8FC300022C7F8E830C7F829
:10373000EC20D7E93A4522462B469118B9655B4102
:10374000FB65D7E91623214612EB0108294643EB16
:1037500001094FF000024FF000034FEAC90343EAAA
:1037600058734FEAC80290469946234618EB030364
:10377000C7F8E0302B4649EB0303C7F8E430D7F82D
:10378000F4305B680022C7F8D830C7F8DC20D7E9EE
:1037900036120B46DB183B65134642EB03037B6591
:1037A000D7E91423D7E93801FDF75EFA02460B4644
:1037B000614BA3FB02235B091C01D7F8FC300022FC
:1037C000C7F8D030C7F8D420D7E9348942464B46F1
:1037D0009118B9645B41FB64D7E91223414612EBAF
:1037E000010A494643EB010B4FF000024FF0000382
:1037F0004FEACB0343EA5A734FEACA0292469B460A
:1038000043461AEB0303C7F8C8304B464BEB0303A0
:10381000C7F8CC30D7F8F4305B680022C7F8C03066
:10382000C7F8C420D7E930120B46DB183B641346B7
:1038300042EB03037B64D7E91023D7E93201FDF79C
:1038400013FA02460B4611463B4BA3FB01235B09CF
:10385000642202FB03F3CB1ADB0003F13202364B86
:10386000A3FB02235B095B0003F4F8731C44D7F845
:10387000FC300022C7F8B830C7F8BC20D7E92E8941
:1038800042464B469118B9635B41FB63D7E90E236F
:1038900041465118396349464B417B634FF0000262
:1038A0004FF00003D7E90CAB5946CB00514643EA31
:1038B00051735146CA0010461946034642469B18AA
:1038C000C7F8B0304B460A4642EB0303C7F8B430A2
:1038D000D7F8F4305B680022C7F8A830C7F8AC20EE
:1038E000D7E92A120B46DB18BB62134642EB0303EF
:1038F000FB62D7E90A23D7E92C01FDF7B5F90246A7
:103900000B460D4BA3FB02135B09642101FB03F380
:10391000D31ADB003233084AA2FB03235B0903F00E
:103920000702D7F8F4301B6822449A6006E100BF12
:1039300000100140001401401F85EB51D7F8FC3006
:103940000022C7F8A030C7F8A420D7E9288942464A
:103950004B46911839625B417B62D7E908234146A7
:103960005418494643EB01054FF000024FF00003A5
:10397000EB0043EA5473E20014461D464346E31845
:10398000C7F898304B4645EB0303C7F89C30D7F88F
:10399000F4305B680022C7F89030C7F894204FF0ED
:1039A00000024FF00003D7E9244529468B00214649
:1039B00043EA917321468A00D7E92601FDF754F9BD
:1039C00002460B46604BA3FB02235B091C01D7F8A0
:1039D000FC300022C7F88830C7F88C20D7E922894C
:1039E00042464B469118B9615B41FB61D7E906231A
:1039F00041465118396149464B417B614FF0000205
:103A00004FF00003D7E904AB5946CB00514643EAD7
:103A100051735146CA0010461946034642469B1848
:103A2000C7F880304B460A4642EB0303C7F88430A0
:103A3000D7F8F4305B680022BB67FA674FF00002EA
:103A40004FF00003D7E91E8949468B00414643EAFF
:103A5000917341468A00D7E92001FDF705F9024636
:103A60000B461146384BA3FB01235B09642202FB82
:103A700003F3CB1A1B013233334AA2FB03235B0946
:103A800003F0F0031C44D7F8FC3000223B677A6750
:103A9000D7E91C8942464B469118B9605B41FB60EF
:103AA000D7E9022341465118396049464B417B60B2
:103AB0004FF000024FF00003D7E900AB5946CB00AE
:103AC000514643EA51735146CA001046194603460F
:103AD00042469B18BB664B460A4642EB0303FB6615
:103AE000D7F8F4305B6800223B667A664FF000023C
:103AF0004FF00003D7E9188949468B00414643EA55
:103B0000917341468A00D7E91A01FDF7ADF80246E4
:103B10000B460D4BA3FB02135B09642101FB03F36E
:103B2000D31A1B013233084AA2FB03235B0903F0BB
:103B30000F02D7F8F4301B6822449A6000BF07F5E3
:103B40008077BD46BDE8B08F1F85EB512DE9FF475B
:103B500057EC106B002F0C4619463B46BBBF07F1D4
:103B600000431F4600232D230B700D9BDDF830A072
:103B7000914623F02008BCBF32461646B8F1460FE6
:103B800005D0B8F1450F00D10134022100E0032136
:103B900003AB019302AB009347EC106B53462246F4
:103BA00000F05AFEB8F1470F054619D119F0010F80
:103BB0000ED000EB04090022002330463946FCF702
:103BC00093FF08B1CDF80C903022039B4B451ED3D8
:103BD000039B0E9A5B1B2846136004B0BDE8F08778
:103BE000B8F1460F00EB0409E5D10378302B0AD178
:103BF0000022002330463946FCF776FF18B9C4F19D
:103C00000104CAF80040DAF800309944D3E7591C9F
:103C100003911A70D9E7F7B50029BABF49422D239D
:103C20002B2309290270437029DD0DF107031D467E
:103C30000A271A46B1FBF7F607FB1614303402F8D0
:103C4000014C0C46632C03F1FF333146F1DC30317B
:103C5000941E03F8011C411C2346AB420AD30DF10C
:103C600009039B1AAC4288BF002302330344181A8D
:103C700003B0F0BD13F8016B01F8016FEDE73023DD
:103C800030318370C170031DF1E700002DE9F04F62
:103C90008DB00C46DDF8588016461F46054600F0EC
:103CA000DBFC036804931846FCF7F2FA00230A933E
:103CB000D8F800300590073323F0070303F108021A
:103CC00094F818A0D4F800B0C8F80020D3E900890F
:103CD00029F000430793CDF81880C4E91289DDE983
:103CE00006019C4B4FF0FF32FCF730FF70BBDDE963
:103CF0000601984B4FF0FF32FCF70AFF30BB002261
:103D0000002340464946FCF7F9FE10B12D2384F804
:103D10004330914A914BBAF1470F94BF9046984671
:103D2000032323612BF0040323604FF00009009765
:103D300033460BAA2146284600F0D2F9013040F064
:103D40008D804FF0FF300DB0BDE8F08F42464B46FE
:103D500040464946FCF7FAFE40B14B46002BBCBF3B
:103D60002D2384F843307E4A7E4BD4E763680AF003
:103D7000DF0206925A1C3BD1062363604BF480623B
:103D80000023226003930AABCDE901A309AB0093A2
:103D9000616849EC108B0DF123032846FFF7D6FE2E
:103DA000069B0999472B804629D1C81C02DB636812
:103DB000994241DDAAF1020A5FFA8AFA01395246B4
:103DC00004F150000991FFF726FF0A9A1318012AFF
:103DD0008146236102DC2268D20701D501332361C9
:103DE0009DF82330002BA2D02D2384F843309EE78A
:103DF000069A472AC2D1002BC0D10123BDE7BAF1F0
:103E0000650FDBD9BAF1660F18D1002963680BDDA5
:103E1000216113B92268D00702D501330B44236115
:103E2000A1654FF00009DBE713B92268D20701D57D
:103E30000233F4E70123F2E74FF0670A0A9B994245
:103E400005DB23682161D807EAD54B1CE7E7002989
:103E5000D4BFC1F1020201221344E0E723685A05EE
:103E600007D42369424631462846B84701302BD152
:103E700067E7BAF1650F40F2DD80D4E91201002254
:103E80000023FCF731FE002833D0374A01233146A6
:103E90002846B84701303FF454AFDDE909384345BF
:103EA00002DB2368D8070FD5DDE904233146284615
:103EB000B84701303FF445AF4FF0000908F1FF3833
:103EC00004F11A0AC84509DC23689B0700F1038145
:103ED000E0680B9B9842B8BF184634E7012352466E
:103EE00031462846B84701303FF42BAF09F10109AC
:103EF000E8E7099B002B39DC1B4A012331462846A1
:103F0000B84701303FF41DAFDDE9093959EA030331
:103F100002D12368D907D7D5DDE9042331462846E5
:103F2000B84701303FF40DAF4FF0000A04F11A0B0F
:103F3000099B5B42534501DC4B4693E701235A46FC
:103F400031462846B84701303FF4FBAE0AF1010A7A
:103F5000EEE700BFFFFFEF7F147C0008187C00082D
:103F60001C7C0008207C0008247C0008A36DDDF880
:103F700028A05345A8BF5346002B994636DC4FF086
:103F8000000B29EAE97904F11A02A36D0693A3EB69
:103F900009035B4531DC099B9A453ADC2368DA0763
:103FA00037D4099BAAEB0309069BAAEB03039945A7
:103FB000A8BF9946B9F1000F33DC4FF0000829EA99
:103FC000E97904F11A0B099BAAEB0303A3EB09039C
:103FD00043457FF779AF01235A4631462846B84713
:103FE00001303FF4AEAE08F10108ECE7424631463D
:103FF0002846B8470130C2D1A3E6012331462846FE
:104000000692B84701303FF49CAE069A0BF1010BC3
:10401000BBE7DDE9042331462846B8470130C0D16B
:104020008FE6069A4B46424431462846B84701304F
:10403000C3D186E6DDF828A0BAF1010F01DCDB0769
:1040400036D50123424631462846B84701303FF471
:1040500078AEDDE9042331462846B84701303FF405
:1040600070AED4E91201002200230AF1FF3AFCF7F6
:104070003BFDC0B9534608F1010231462846B84716
:1040800001300CD15DE601235A4631462846B84737
:1040900001303FF456AE08F10108D045F3DB4B4642
:1040A00004F15002DFE64FF0000804F11A0BF4E7C8
:1040B00001234246E1E701234A4631462846B847F4
:1040C00001303FF43EAE08F10108E3680B995B1A3A
:1040D0004345F0DCFCE64FF0000804F11909F4E771
:1040E0002DE9F047164698468A680B69DDF820905E
:1040F0009342B8BF1346336091F8432007460C46FD
:104100000AB1013333602368990642BF3368023332
:104110003360256815F0060506D104F1190AE36835
:1041200032689B1AAB4226DC94F843302268003B8D
:1041300018BF012392062BD404F1430241463846AE
:10414000C84701301ED02368226903F00603042B00
:1041500002BFE5683368ED1AA3680CBF25EAE57570
:1041600000259342C4BF9B1AED1800261A34B542AD
:104170001AD1002008E00123524641463846C8477C
:10418000013003D14FF0FF30BDE8F0870135C6E7BD
:10419000E1185A1C302081F84300224494F845105D
:1041A00082F843100233C7E70123224641463846CE
:1041B000C8470130E6D00136D9E700002DE9FF47B6
:1041C0000F7E0C9E782F914680460C469A4601F150
:1041D000430207D8622F0AD8002F00F0D280582F50
:1041E00000F0B98004F1420684F842703AE0A7F189
:1041F0006303152BF6D801A151F823F055420008AE
:1042000069420008E5410008E5410008E541000871
:10421000E541000869420008E5410008E541000861
:10422000E5410008E54100086943000893420008A1
:1042300023430008E5410008E54100088B430008DE
:10424000E541000893420008E5410008E541000807
:104250002B43000833681A1D1B68326004F14206C4
:1042600084F8423001239DE033682068191D3160D5
:10427000060601D51D6803E04506FBD5B3F90050DD
:10428000002D03DA2D236D4284F8433059480A2368
:1042900011E021683368080653F8045B02D449062C
:1042A00048BFADB26F2F5348336014BF0A230823B1
:1042B000002184F843106668A660002EA2BF216822
:1042C00021F0040121600DB9002E4BD01646B5FB3C
:1042D000F3F103FB1157C75D06F8017D2F46BB4282
:1042E0000D46F4D9082B0BD12368DF0708D52369C5
:1042F00061689942DEBF302306F8013C06F1FF36C3
:10430000921B2261CDF800A04B4603AA21464046ED
:10431000FFF7E6FE01304AD14FF0FF3004B0BDE8B0
:10432000F087236843F0200323603348782784F81C
:104330004570236831681F0651F8045B02D45F069C
:1043400048BFADB23160D90744BF43F020032360BA
:104350001DB11023ACE72748E9E7236823F02003C9
:104360002360F6E71646BDE7336825686169181DC6
:1043700030602E061B6801D5196002E06806FBD587
:104380001980002323611646BCE733681A1D32608A
:104390001E68626800213046FBF72AFF08B1801BC7
:1043A000606063682361002384F84330AAE72369CF
:1043B000324649464046D0470130ADD023689B077E
:1043C00013D4E068039B9842B8BF1846A6E70123C0
:1043D000324649464046D04701309DD00135E3681A
:1043E00003995B1AAB42F2DCEBE7002504F11906F6
:1043F000F5E700BF267C0008377C0008002310B5D5
:104400000446C0E90033C0E9043383608181436618
:10441000C2818361194608225C3000F014F90D4B0B
:1044200063620D4BA3620D4BE3620D4B23630D4B97
:1044300024629C4206D003F16802944202D0D03339
:104440009C4205D104F15800BDE8104000F078B955
:1044500010BD00BFC1450008E34500081B46000829
:104460003F46000808030020024A0349034800F0C1
:1044700069B800BF0C0000209D6000081C000020EF
:1044800041680C4B994210B5044601D001F006FE7C
:10449000A168094B994202D0204601F0FFFDE16876
:1044A000064B994204D02046BDE8104001F0F6BD0D
:1044B00010BD00BF0803002070030020D8030020B7
:1044C00010B50B4B0B4C0C4A1A60204600220421FD
:1044D000FFF794FF04F1680001220921FFF78EFF26
:1044E00004F1D0000222BDE810401221FFF786BF80
:1044F000400400200803002069440008014800F03F
:1045000020B900BF49040020014800F01BB900BFDA
:104510004904002010B50446FFF7F0FF236A1BB1E1
:10452000BDE81040FFF7F0BF044B2362044B1B684B
:10453000002BF5D1FFF7C4FFF2E700BF814400086C
:10454000400400202DE9F84307468846144600261B
:10455000D4E90195B9F1010905D52468002CF7D1FA
:104560003046BDE8F883AB89012B07D9B5F90E3089
:10457000013303D029463846C04706436835E9E78A
:104580000EB400B59CB01DAB029006906FF00041D8
:10459000094807910491094953F8042B05910068D3
:1045A000019302A901F0FAFB029B00221A701CB0D1
:1045B0005DF804EB03B07047180000200802FFFF0D
:1045C00010B50C46B1F90E1000F06CF80028ABBF26
:1045D000636DA3891B1823F48053ACBF6365A3816B
:1045E00010BD2DE9F0411F468B89DB0505460C46C1
:1045F000164605D5B1F90E100223002200F040F84E
:10460000A389B4F90E1023F48053A38132463B46AC
:104610002846BDE8F04100F057B810B50C46B1F996
:104620000E1000F02DF8431CA38915BF606523F41C
:10463000805343F48053A38118BFA38110BDB1F907
:104640000E1000F00DB802440346934200D17047AB
:1046500003F8011BF9E700000048704758010020EB
:1046600038B5064D0023044608462B60FDF781F956
:10467000431C02D12B6803B1236038BD44040020E1
:1046800038B5074D04460846114600222A601A46EE
:10469000FDF796F9431C02D12B6803B1236038BDA6
:1046A0004404002038B5074D044608461146002250
:1046B0002A601A46FDF724F9431C02D12B6803B186
:1046C000236038BD4404002038B5074D0446084631
:1046D000114600222A601A46FDF72FF9431C02D129
:1046E0002B6803B1236038BD44040020014B1868D7
:1046F000704700BF1800002070B50D4D0D4C641BB5
:10470000A4100026A64209D10B4D0C4C03F04EFA22
:10471000641BA4100026A64205D170BD55F8043BC9
:1047200098470136EEE755F8043B98470136F2E723
:10473000C07F0008C07F0008C07F0008C47F000859
:104740007047704770472DE9F74F03690C69A34222
:1047500007467EDB013C01F11408A30000F11405BB
:10476000009305EB8403019358F8243055F8242076
:1047700001339A4208EB8409B2FBF3F62ED34FF0D3
:10478000000AC446AE46D3465CF8043B98B206FB2A
:1047900000A0020C1B0C06FB0323DEF8002080B2F5
:1047A00092B2121A5A44DEF800004FEA134A9BB242
:1047B000C3EB224303EB104392B242EA0342E145CA
:1047C0004EF8042B4FEA234BDED2009BEB582BB95B
:1047D000019B043B9D421A462FD33C61384601F0B1
:1047E00079F9002825DB2946002058F8042BD1F858
:1047F00000C01FFA82FE1FFA8CF3A3EB0E030344E2
:10480000120CC2EB234202EB1C429BB243EA02436E
:10481000C14541F8043B4FEA2240E6D255F8242036
:1048200005EB840322B9043B9D421A460BD33C613D
:104830000136304603B0BDE8F08F1268043B002A11
:10484000CBD1013CC6E71268043B002AEFD1013C02
:10485000EAE70020EEE700002DE9F04FC76999B0C4
:104860008DED020B55EC104B229E099183460E9262
:1048700013937FB9102000F0FDFD0246CBF81C0019
:1048800020B9A74BEF21A74801F068FCC0E90177E8
:104890000760C760DBF81C30196859B15A684A6074
:1048A000012393408B60584600F0DAFEDBF81C30A1
:1048B00000221A602B1EB9BF23F00043039300238C
:1048C0003360039F984BBCBF01223260BB4312D1BF
:1048D000139A42F20F731360C7F31303234300F0DC
:1048E0004D85239BDFF854A2002B00F04F850AF181
:1048F000030300F049BD9DED027B002251EC170B34
:1049000000238DED0C7BFCF7EFF8804658B1139A2D
:1049100001231360239B13B1239A844B1360DFF8A8
:1049200020A200F033BD9DED0C0B16AA17A9584626
:1049300001F080F9C7F30A568146002E77D00D9B0F
:10494000CDF85080C3F31303DDE90C0143F07F532E
:1049500043F44013A6F2FF3619460022744BFBF7CE
:10496000A3FC69A3D3E90023FBF756FE68A3D3E9B0
:104970000023FBF79BFC044630460D46FBF7E2FDA7
:1049800065A3D3E90023FBF747FE02460B4620460A
:104990002946FBF78BFC04460D46FCF7EDF8002298
:1049A0000746002320462946FCF7A8F840B13846C0
:1049B000FBF7C8FD22462B46FCF796F800B9013FED
:1049C000162F51D85B4B03EBC703D3E90023DDE976
:1049D0000C01FCF793F8002848D0013F0023129304
:1049E000169B9B1B5A1E44BFC3F10108002308926B
:1049F00054BF4FF000080893002F39DB089B0F9736
:104A00003B44089300230A93099B092B64D8052B88
:104A1000C4BF043B0993099BA3F10203CCBF00244C
:104A20000124032B63D8DFE803F02A373555DDE98D
:104A300016631E4406F23243202BC1BFC3F140036C
:104A40009F4006F2124324FA03F3D6BFC3F12003BA
:104A500047EA030004FA03F0FBF764FD0122A1F129
:104A6000F873013E149277E70123B8E71290B7E795
:104A70007B420A930023A8EB07080F93C4E70023A7
:104A80000B930E9B002B35DC0123009307931A46F2
:104A90000E920BE00123F3E700230B930E9BFB1810
:104AA00000930133012B0793B8BF0123DBF81C00EF
:104AB0000021042202F114059D421FD9416058468D
:104AC00000F08EFD824600283CD11B4B024640F28E
:104AD000AF11D8E60123E0E70124002309930B94EA
:104AE0004FF0FF330093079300221223D0E70123F6
:104AF0000B93F5E70E9B00930793D7E70131520024
:104B0000D8E700BFAFF3008061436F63A787D23F50
:104B1000B3C8608B288AC63FFB799F501344D33FAC
:104B2000557C00086C7C00080000F07F257C0008A4
:104B30000000F83F687D0008C47C0008517C000834
:104B4000247C0008DBF81C301860079B0E2B00F259
:104B5000A480002C00F0A180002F33DDAD4B07F0C6
:104B60000F0203EBC20393ED007BF8058DED047B90
:104B70004FEA271416D5A84BDDE90C01D3E9082329
:104B8000FBF774FECDE9020104F00F040326A24DE9
:104B900054B9DDE90423DDE90201FBF767FECDE945
:104BA000020128E00226F2E7E10708D5DDE9040169
:104BB000D5E90023FBF730FDCDE90401013664108F
:104BC0000835E5E700F0D2807C42924B924D04F02C
:104BD0000F0203EBC203D3E90023DDE90C01FBF76D
:104BE0001BFDCDE90201241100230226002C40F018
:104BF000B280002BD3D1129BDDE90245002B00F0DF
:104C0000B780864B002220462946FBF777FF002815
:104C100000F0AE80079B002B00F0AA80009B002BC9
:104C200037DD7B1E049320467D4B00222946FBF78F
:104C3000F3FCCDE90201009C01363046FBF782FC13
:104C4000DDE90223FBF7E8FC764B0022FBF72EFBA5
:104C50000546A1F15076002C40F08D80DDE902017F
:104C6000714B0022FBF720FB02460B46CDE90223E5
:104C70002A463346FBF760FF002840F08B82DDE9CF
:104C800002012A4606F10043FBF738FF002840F0F6
:104C90002881DDE90C34CDE90234179B002BC0F2EA
:104CA0005A810E2F00F357815A4B03EBC70393ED44
:104CB000007B0E9B002B8DED007B03DA079B002B06
:104CC00040F30181DDE902455646DDE90023204637
:104CD0002946FBF7CBFDFBF74FFF8046FBF732FC85
:104CE000DDE90023FBF798FC02460B4620462946E7
:104CF00008F13004FBF7D8FA06F8014B079DA6EB44
:104D00000A04A54202460B4640F01781FBF7CEFA93
:104D1000DDE9002304460D46FBF70EFF002840F0B6
:104D2000F980DDE9002320462946FBF7DDFE18B1B6
:104D300018F0010F40F0EE804946584600F090FC14
:104D400000233370139B01371F60239B002B00F05F
:104D50001D831E601AE3E20705D5D5E90023FBF7A2
:104D60005BFC01360123641008353FE7022642E769
:104D7000079C049761E7274B0B9903EBC40353E9A6
:104D800002235444002953D028490020FBF76EFD2C
:104D900033462A46FBF788FACDE910015646DDE98D
:104DA0000201FBF7E9FE0546FBF7CCFB02460B468A
:104DB000DDE90201FBF778FA303502460B46CDE912
:104DC000022306F8015BDDE91023FBF797FE0028BC
:104DD00071D1DDE9022311490020FBF765FADDE915
:104DE0001023FBF78BFE002840F09580A6423FF48D
:104DF00050AFDDE910010A4B0022FBF70DFC084B18
:104E0000CDE910010022DDE90201FBF705FCCDE947
:104E10000201C4E7687D0008407D00080000F03F03
:104E20000000244000001C40000014400000E03F4F
:104E300031462846FBF7F0FBCDE9100115945646A4
:104E4000DDE90201FBF798FE0546FBF77BFB024616
:104E50000B46DDE90201FBF727FA303506F8015B66
:104E600002460B46A642CDE902234FF0000224D1B0
:104E7000AC4BDDE91001FBF719FA02460B46DDE900
:104E80000201FBF759FE002845D1DDE91023A549B1
:104E90000020FBF709FA02460B46DDE90201FBF7A9
:104EA0002DFE00283FF4F5AE159E731E159316F8DF
:104EB000013C302BF8D0049F3EE79B4BFBF7ACFB4B
:104EC000CDE90201BCE70CD1984B0022DDE90001DD
:104ED000FBF7A2FBDDE90223FBF724FE002800F02C
:104EE0005781002425460E9BDB430493564600273A
:104EF0002146584600F0B4FB002DDCD02FB1AF4264
:104F000003D03946584600F0ABFB2946584600F01E
:104F1000A7FBD0E7049733461E4613F8012D392A24
:104F200007D19A45F8D1049A0132049230228AF8C6
:104F300000201A7801321A70BDE77B4B0022FBF784
:104F40006BFB0022002304460D46FBF7CDFD002835
:104F50003FF4BBAEF0E60B9A002A00F0DB80099A22
:104F6000012A00F3BF80149A002A00F0B78003F2F0
:104F700033430A9C4646089A01211A4458469844ED
:104F8000089200F021FC05465EB1089B002B08DD6D
:104F9000B342089AA8BF3346A8EB0308F61AD31AFF
:104FA00008930A9BF3B10B9B002B00F0B7808CB1E8
:104FB00029462246584600F0C7FC4A4601460546A7
:104FC000584600F017FC49460490584600F048FB4C
:104FD000049B99460A9B1A1B04D04946584600F088
:104FE000B3FC81460121584600F0EEFB0F9B0446BE
:104FF000002B00F0CF811A460146584600F0A4FC71
:10500000099B012B044600F39580029B002B40F086
:105010008780039BC3F31303002B40F08980039B1D
:1050200023F000431B0D1B052BB1089B0133089394
:1050300008F1010801230A930F9B002B00F0B081B7
:10504000236904EB8303186900F072FBC0F12000B0
:10505000089B184410F01F0077D0C0F12003042BE8
:105060006BDD089BC0F11C00034480440644089398
:10507000B8F1000F05DD49464246584600F0BEFC37
:105080008146089B002B05DD21461A46584600F054
:10509000B5FC0446129B002B59D02146484600F02F
:1050A00019FD002853DA7B1E0493494600230A2287
:1050B000584600F0F7FA0B9B8146002B00F07281F6
:1050C000002329460A22584600F0ECFA009B002BE8
:1050D000054667DC099B022B41DC63E0169BC3F1AC
:1050E000360346E7079B5C1E0A9BA342BFBF0A9B91
:1050F0000F9A0A94E31AB4BFD2181C1B079BBCBFBB
:105100000F920024002BB5BFA8EB0306079B0023DA
:10511000464630E70A9C0B9D464635E70A9A5CE70F
:10512000002388E70000E03F000024400000144016
:10513000029B80E700230A9382E799D0089A1C33E8
:105140001A4498441E44089292E70346F6E7079BE8
:105150000497002B20DC0093099B022B1EDD009B93
:10516000002B7FF4C0AE21460522584600F09AFA83
:1051700001460446484600F0ADFC00287FF7B3AE78
:105180005646312306F8013B049B01330493AEE6F7
:10519000079C04972546F3E7079B00930B9B002B86
:1051A00000F00481002E05DD29463246584600F005
:1051B00025FC05460A9B002B5AD06968584600F02A
:1051C0000FFA064628B9844B024640F2EF21FFF75A
:1051D0005ABB2A690232920005F10C010C3000F032
:1051E000AFFF01223146584600F008FC0AF10103E6
:1051F0000793009B53440B93029B03F001032F463C
:105200000A930546079B2146013B48460093FFF75A
:105210009AFA3946029000F13008484600F05AFCEC
:105220002A4608902146584600F070FCC26806469F
:1052300002BB0146484600F04DFC02463146584646
:105240000E9200F00DFA099B0E9A079E43EA0201A6
:105250000A9B194310D1B8F1390F29D0089B002BB4
:1052600002DD029B03F13108009B83F800803FE6DA
:105270002846BBE70122E1E7089B002B04DB0999E4
:105280000B430A990B4320D1002AEDDD4946012248
:10529000584600F0B3FB2146814600F01BFC002875
:1052A00003DCE1D118F0010FDED0B8F1390FD8D10D
:1052B000009A3923137033461E46013B16F8012C21
:1052C000392A52D001321A7012E6002A07DDB8F1ED
:1052D000390FEDD0009A08F10103137008E6079B1F
:1052E000079A03F8018C0B9B934228D04946002370
:1052F0000A22584600F0D6F9AF4281464FF000032B
:105300004FF00A023946584607D100F0CBF907465C
:105310000546079B0133079374E700F0C3F929465C
:10532000074600230A22584600F0BCF90546F0E77C
:10533000009B002BCCBF1E46012656440027494641
:105340000122584600F05AFB2146814600F0C2FB7C
:105350000028B0DC02D118F0010FACD133461E4654
:1053600013F8012D302AFAD0C2E59A45A4D1049B46
:105370000133049331238AF80030B9E5239BDFF829
:105380005CA01BB10AF10803239A1360504619B0C0
:10539000BDE8F08F099B012B7FF737AE0F9B0A9377
:1053A000012055E6009B002B7FF7D6AE56462146DE
:1053B0004846FFF7C8F900F1300806F8018B009B5A
:1053C000A6EB0A029342B3DD494600230A2258465F
:1053D00000F068F98146EAE7C47C0008487C0008D0
:1053E00038B50546002941D051F8043C0C1F002B6C
:1053F000B8BFE41800F0E8F81D4A136833B96360D9
:1054000014602846BDE8384000F0E4B8A34208D94B
:10541000206821188B4201BF19685B680918216058
:10542000EDE71A465B680BB1A342FAD91168501830
:10543000A0420BD120680144501883421160E0D192
:1054400018685B68536008441060DAE702D90C23DF
:105450002B60D6E7206821188B4204BF19685B686F
:10546000636004BF091821605460CAE738BD00BFFB
:1054700050040020024B0146186800F025B800BF18
:105480001800002070B50F4E0C463168054611B962
:1054900000F046FE30602146284600F041FE431CE5
:1054A00003D14FF0FF34204670BDC41C24F0030428
:1054B000A042F8D0211A284600F032FE0130F2D185
:1054C000EFE700BF4C0400202DE9F843CD1C25F088
:1054D000030508350C2D38BF0C25002D064601DBD1
:1054E000A94204D90C2333600020BDE8F883DFF81B
:1054F000D48000F069F8D8F800301C4644BB294637
:105500003046FFF7BFFF431C044658D1D8F800408F
:105510002746002F43D1002C4BD023683946304614
:1055200004EB030900F0FCFD814542D121686D1AAE
:1055300029463046FFF7A6FF01303AD023682B44B6
:105540002360D8F800305A6862BBC8F800700FE0DA
:105550002268521B20D40B2A17D96119A342256057
:1055600018BF5960636808BFC8F8001062514B60EB
:10557000304600F02FF804F10B00231D20F0070047
:10558000C21A1CBF1B1AA350AFE76268A3420CBF2C
:10559000C8F800205A60EBE723466468AEE73C4653
:1055A0007F68B6E71A465B68A342FBD100235360CD
:1055B000DEE70C233360304600F00CF894E705601A
:1055C000D6E700BF500400200148FFF7BAB800BF7B
:1055D000480400200148FFF7B5B800BF4804002088
:1055E00070B5C66904460D4676B91020FFF742FF34
:1055F0000246E06120B9184B18486B2100F0AEFD5F
:10560000C0E901660660C660E669F36883B1E369D4
:10561000DB6853F82500B8B9012101FA05F6721DBF
:105620009200204600F0B8FD60B1C0E901560EE0DE
:1056300021220421204600F0AFFDE369F060DB6821
:10564000002BE4D1002070BD026843F82520002320
:10565000C0E90333F7E700BF557C0008D57C00089C
:1056600070B5C66905460C4676B91020FFF702FFF3
:105670000246E86120B9094B09488F2100F06EFD10
:10568000C0E901660660C6603CB1EB696268DB6830
:1056900053F82210216043F8224070BD557C000869
:1056A000D57C00082DE9F0410D6907460C461E46E1
:1056B00001F1140C0020DCF8003099B202FB01610A
:1056C0001E0C0B0C02FB063389B2013001EB0341C7
:1056D00085424CF8041B4FEA1346ECDC0EB3A3687A
:1056E000AB4219DC616838460131FFF779FF80462B
:1056F00028B902460C4B0D48BA2100F02FFD226953
:10570000023204F10C0192000C3000F019FD214628
:105710003846FFF7A5FF444604EB850301355E617B
:1057200025612046BDE8F081C47C0008D57C0008D6
:10573000B0F5803F034636BF030400201020B3F1CC
:10574000807F3CBF1B020830B3F1805F3CBF1B0170
:105750000430B3F1804F3CBF9B000230002B05DBCF
:1057600013F0804F00F1010008BF2020704703684C
:10577000024613F007000BD0D90721D4980749BF80
:105780005B089B08012013605CBF13600220704718
:1057900099B209B91B0C1020D9B209B908301B0AFB
:1057A000190704BF1B090430990704BF9B08023086
:1057B000D90703D45B0800F1010003D013607047E0
:1057C000002070472020704710B50C460121FFF7DC
:1057D00007FF024628B9054B054840F2451100F085
:1057E000BDFC01234461036110BD00BFC47C0008FF
:1057F000D57C00082DE9F04F14460A6923699A42C6
:10580000A8BF23460F46A4BF0C461F46D4F810A0DD
:10581000D7F81090A36861680AEB0906B34285B017
:10582000B8BF0131FFF7DCFE30B90246444B4548B2
:105830004FF4B17100F092FC00F1140505EB8608FD
:105840002B460022434521D307F1140104F1140231
:1058500002EB8A0201EB89030293131B153B23F031
:105860000303043304F11507BA4238BF042301933C
:10587000029B03918B420CD8002E03DD58F8043DA7
:10588000002B5BD0066105B0BDE8F08F43F8042B18
:10589000D8E7B1F800A0BAF1000F24D004F1140E3B
:1058A000A9464FF0000C5EF8047BD9F800301FFACF
:1058B00087FB9BB20AFB0B334FEA174BD9F80070FA
:1058C00063444FEA174C0AFB0BC707EB13479BB225
:1058D00043EA0743724549F8043B4FEA174CE2D8C4
:1058E000019B45F803C0039BB3F802900431B9F162
:1058F000000F21D02B6804F1140CAE464FF0000AC3
:10590000BCF800B0BEF8027009FB0B7757449BB29D
:1059100043EA07434EF8043B5CF8043B4FEA134A62
:10592000BEF8003009FB0A3303EB174362454FEA28
:10593000134AE5D8019FEB51043599E7013E9BE7F7
:10594000C47C0008D57C00082DE9F843154612F008
:10595000030207460E4607D0254C013A002354F8AF
:105960002220FFF79FFE0646AD103DD0FC697CB9B2
:105970001020FFF77FFD0246F86128B91D4B1E4835
:1059800040F2B31100F0EAFBC0E901440460C460D6
:10599000D7F81C80D8F808404CB940F2712138463D
:1059A000FFF712FF0023C8F80800044603604FF019
:1059B0000009EB070AD5314622463846FFF71AFFA1
:1059C000314680463846FFF74BFE46466D100BD0F9
:1059D000206838B9224621463846FFF70BFF206081
:1059E000C0F800900446E4E73046BDE8F88300BF05
:1059F000307D0008557C0008D57C00082DE9F04773
:105A00000C464968236903EB6218A3680746914670
:105A10004FEA621A08F10106B3420BDB3846FFF782
:105A2000DFFD054648B90246284B29484FF4EF717F
:105A300000F094FB01315B00EEE7002300F114015C
:105A400000F110021846534533DB20692AEAEA7A4E
:105A500004F1140319F01F0901EB8A0103EB800C18
:105A60002BD0C9F1200E8A460022186800FA09F0EE
:105A700010434AF8040B53F8042B9C4522FA0EF20B
:105A8000F3D8ACEB0403153B23F00303043304F118
:105A90001500844538BF0423CA500AB108F1020634
:105AA000013E38462E612146FFF7DAFD2846BDE863
:105AB000F08742F8040F0133C5E7043953F8042B8B
:105AC00041F8042F9C45F9D8EAE700BFC47C0008E0
:105AD000D57C00080A6903460069801A30B50ED1EA
